:100000000C945E000C9486000C9486000C94860080
:100010000C9486000C9486000C9486000C94860048
:100020000C9486000C9486000C9486000C94860038
:100030000C9486000C9486000C9486000C94860028
:100040000C9493010C9486000C9486000C9486000A
:100050000C9486000C9486000C9486000C94860008
:100060000C9486000C9486000000000024002700F9
:100070002A0000000000250028002B0004040404CE
:100080000404040402020202020203030303030342
:10009000010204081020408001020408102001021F
:1000A00004081020000000080002010000030407FB
:1000B0000000000000000000AE030A0411241FBE6F
:1000C000CFEFD8E0DEBFCDBF11E0A0E0B1E0E2E3CA
:1000D000FCE002C005900D92AA30B107D9F721E0EB
:1000E000AAE0B1E001C01D92AC32B207E1F710E026
:1000F000CDE5D0E004C02197FE010E94D904CC35A3
:10010000D107C9F70E94DD010C940C060C94000085
:1001100090E0FC01EC55FF4F2491FC01E057FF4FAC
:100120003491FC01E458FF4FE491EE23B9F122230E
:1001300039F1233091F038F42130A9F0223001F563
:1001400084B58F7D12C0273091F02830A1F0243083
:10015000B9F4809180008F7D03C0809180008F77FB
:10016000809380000DC084B58F7784BD09C08091D5
:10017000B0008F7703C08091B0008F7D8093B00076
:10018000F0E0EE0FFF1FEE58FF4FA591B4918FB72F
:10019000F894EC9130953E233C938FBF08958F9255
:1001A0009F92AF92BF92CF92DF92EF92FF924B015C
:1001B000AA24BB24E82DC52ED62EE72EFF24FC2D25
:1001C000342F20911A01222361F0829E40011124D4
:1001D000E92DC29E60011124FD2D429FD001112402
:1001E0003B2FF0902001E0901D01A0911B01B091E8
:1001F0001C01FE1008C0AC01440F551F840F951F51
:100200008A0F9B1F14C0880F991F880F991F8A0F90
:100210009B1F472F552766277727DC01AF0DB11DA0
:10022000222321F0429FA0011124452F4C932091BD
:100230001D01DC01A20FB11DEC9320911E01DC0118
:10024000A20FB11DFC9320911F01FC01E20FF11DD3
:100250003083FF90EF90DF90CF90BF90AF909F9052
:100260008F900895CF93DF9390E0FC01E057FF4F0C
:100270002491FC01E458FF4F8491882361F190E0C0
:10028000880F991FFC01E859FF4FC591D491FC01DB
:10029000EE58FF4FA591B491611109C09FB7F89432
:1002A0008881209582238883EC912E230BC06230B5
:1002B00061F49FB7F8943881822F809583238883D7
:1002C000EC912E2B2C939FBF06C08FB7F894E8813A
:1002D0002E2B28838FBFDF91CF9108953FB7F894DD
:1002E00080910F0190911001A0911101B091120124
:1002F00026B5A89B05C02F3F19F00196A11DB11D81
:100300003FBFBA2FA92F982F8827820F911DA11DBB
:10031000B11DBC01CD0142E0660F771F881F991FF8
:100320004A95D1F708951F920F920FB60F9211249C
:100330002F933F938F939F93AF93BF9380910B0124
:1003400090910C01A0910D01B0910E0130910A0124
:1003500023E0230F2D3720F40196A11DB11D05C008
:1003600026E8230F0296A11DB11D20930A01809358
:100370000B0190930C01A0930D01B0930E0180919D
:100380000F0190911001A0911101B09112010196FD
:10039000A11DB11D80930F0190931001A093110135
:1003A000B0931201BF91AF919F918F913F912F9187
:1003B0000F900FBE0F901F901895CF93DF93CDB77E
:1003C000DEB72D970FB6F894DEBF0FBECDBF789481
:1003D00084B5826084BD84B5816084BD85B582604A
:1003E00085BD85B5816085BD80916E0081608093FB
:1003F0006E00109281008091810082608093810064
:100400008091810081608093810080918000816073
:10041000809380008091B10084608093B1008091CE
:10042000B00081608093B00080917A0084608093F6
:100430007A0080917A00826080937A0080917A00BD
:10044000816080937A0080917A00806880937A003E
:100450001092C1008091190187FD07C061E00E94E0
:100460003201809119010E94880081E0809314017B
:1004700020911A01222339F100911B0110911C01D6
:10048000215051F030E040E050E06FEF7FEF80E02E
:1004900090E00E94760402C020E030E0F801409134
:1004A000170150911801CF01801B910B84179507FC
:1004B00040F44081429FC001439F900D11249193CD
:1004C000EECF10921A01C12CD12C7601CA9450E0C3
:1004D000252E50E0352E00E010E0A12CB12C8091AB
:1004E000150190911601A816B90630F440E050E0CD
:1004F000BA01C5010E94CF002FEFA21AB20A38E15B
:10050000A316B10461F70E9468044B015C010E94CC
:1005100068046A877B878C879D870E9468042B010B
:100520003C01809115019091160108171907C8F533
:100530006A857B858C859D85A70196010E9476043E
:10054000DC01CB019927AA27BB272227382F492F67
:100550005A2F2A873B874C875D87C301B201A701C9
:1005600096010E9476042B013C01552466247724D1
:100570003201552444248A859B85AC85BD85482A53
:10058000592A6A2A7B2AC501B401A70196010E9453
:100590007604D301C201862BAC01BD01C8010E94C3
:1005A000CF0080911B0190911C01892B09F4A2C0FE
:1005B0000E946E018090210190902201A090230161
:1005C000B0902401DC01CB0188199909AA09BB0963
:1005D0008C329140A105B10558F3F8948091170130
:1005E000909118019A838983E0911B01F0911C017D
:1005F000DF0111968081898790911301E091250197
:10060000F091260180912701992309F42EC0908151
:10061000982B98879081809589238F838F818C83F5
:1006200038E03B8358856F8149853B812C818981E6
:100630009A81508347FD252F3A952083262F39F044
:10064000441F00C000006083000000C0F2CF38E00B
:100650004D9160830000019761F7F0932601E093CC
:10066000250149873B832C8338C09081982B98873C
:100670009081809589238F838F818E8348E04D837D
:1006800058856F8149853D812E8189819A8150836A
:1006900047FD252F00C000C0208300C000C000C05F
:1006A00000C000C060830000262F3A9541F0441F2F
:1006B000000000C000C000C000C000C0E8CF38E0AB
:1006C0004D9100C0608300C0019709F7F0932601A7
:1006D000E093250149873D832E839A83898378940B
:1006E0000E946E0160932101709322018093230187
:1006F000909324010E946E012B013C0188EE882E0C
:1007000083E0982EA12CB12C0E946E01DC01CB015C
:1007100084199509A609B709883E9340A105B1053A
:1007200058F051E0851A9108A108B10888EE480EEA
:1007300083E0581E611C711C81149104A104B10452
:1007400019F70F5F1F4F0831110509F0C6CE2114AC
:10075000310409F4C0CE0E940000BDCE10921401F5
:1007600010921A011092210110922201109223017D
:100770001092240181E08093200180931D0110924A
:100780001E0192E090931F018093130188E490E092
:1007900090931801809317010E94DF0490931C012D
:1007A00080931B01009761F028E4FC0111922A95C7
:1007B000E9F788E190E0909316018093150108C055
:1007C0001092180110921701109216011092150143
:1007D00084E08093190180911401882339F061E04D
:1007E00084E00E94320184E00E948800E0E8F0E0AA
:1007F000E491F0E0EE0FFF1FEE58FF4F85919491CA
:100800009093260180932501E4E9F0E0E491E093E0
:100810002701089580911B0190911C01009711F010
:100820000E9474058091190187FD03C060E00C945B
:10083000320108958F929F92AF92BF92CF92DF9232
:10084000EF92FF92CF93DF93EC01688179818A81E7
:100850009B81611571058105910521F464E279EDB3
:100860008BE597E02DE133EF41E050E00E94760404
:1008700049015A019B01AC01A7EAB1E40E94950429
:100880006B017C01ACEEB4EFA50194010E94A304BE
:10089000DC01CB018C0D9D1DAE1DBF1DB7FF03C03C
:1008A0000197A109B04888839983AA83BB83BC01BF
:1008B000CD019F77DF91CF91FF90EF90DF90CF90A8
:1008C000BF90AF909F908F9008950E941A04089552
:1008D00080E091E00E941A040895609300017093F3
:1008E000010180930201909303010895052E97FB67
:1008F0001EF400940E948D0457FD07D00E94A804A6
:1009000007FC03D04EF40C948D045095409530951F
:1009100021953F4F4F4F5F4F08959095809570956B
:1009200061957F4F8F4F9F4F08950E94CA04A59FE6
:10093000900DB49F900DA49F800D911D11240895DA
:10094000B7FF0C9495040E949504821B930B0895A5
:10095000A1E21A2EAA1BBB1BFD010DC0AA1FBB1FC3
:10096000EE1FFF1FA217B307E407F50720F0A21B35
:10097000B30BE40BF50B661F771F881F991F1A94A2
:1009800069F760957095809590959B01AC01BD01CC
:10099000CF010895A29FB001B39FC001A39F700D26
:1009A000811D1124911DB29F700D811D1124911D77
:1009B0000895EE0FFF1F0590F491E02D0994CF9359
:1009C000DF938230910510F482E090E0E0912A01FB
:1009D000F0912B0120E030E0C0E0D0E0309711F141
:1009E0004081518148175907C0F04817590761F4F1
:1009F00082819381209719F09B838A832BC09093E7
:100A00002B0180932A0126C02115310519F04217C8
:100A1000530718F49A01BE01DF01EF010280F38150
:100A2000E02DDCCF2115310509F1281B390B2430CD
:100A3000310590F412968D919C9113976115710573
:100A400021F0FB019383828304C090932B01809358
:100A50002A01FD01329644C0FD01E20FF31F81938C
:100A60009193225031092D933C933AC02091280153
:100A700030912901232B41F4209106013091070187
:100A80003093290120932801209104013091050120
:100A90002115310541F42DB73EB740910801509121
:100AA0000901241B350BE0912801F0912901E2177F
:100AB000F307A0F42E1B3F0B2817390778F0AC0181
:100AC0004E5F5F4F2417350748F04E0F5F1F50935E
:100AD0002901409328018193919302C0E0E0F0E066
:100AE000CF01DF91CF9108950F931F93CF93DF93A1
:100AF000009709F48CC0FC01329713821282009196
:100B00002A0110912B010115110581F420813181F9
:100B1000820F931F2091280130912901281739074E
:100B200079F5F0932901E093280171C0D80140E0E4
:100B300050E0AE17BF0750F412962D913C911397D9
:100B4000AD012115310509F1D901F3CF9D01DA017C
:100B50003383228360817181860F971F82179307E9
:100B600069F4EC0128813981260F371F2E5F3F4F32
:100B7000318320838A819B8193838283452B29F44F
:100B8000F0932B01E0932A0142C01396FC93EE935D
:100B90001297ED01499159919E01240F351FE217DB
:100BA000F30771F480819181840F951F029611964D
:100BB0009C938E938281938113969C938E9312972C
:100BC000E0E0F0E0D80112968D919C911397009788
:100BD00019F0F8018C01F6CF8D919C9198012E5F50
:100BE0003F4F820F931F2091280130912901281730
:100BF000390769F4309729F410922B0110922A01D9
:100C000002C0138212821093290100932801DF9100
:100C1000CF911F910F91089510E0CDE5D0E004C071
:100C2000FE010E94D9042196CE35D107C9F7F89468
:020C3000FFCFF4
:0A0C32000100000000002C0180000A
:00000001FF
